{
    "_format": "hh-sol-artifact-1",
    "contractName": "AvocadoGrowerPortal",
    "sourceName": "contracts/AvocadoGrowerPortal.sol",
    "abi": [
        {
            "inputs": [],
            "stateMutability": "payable",
            "type": "constructor"
        },
        {
            "anonymous": false,
            "inputs": [
                {
                    "indexed": true,
                    "internalType": "address",
                    "name": "from",
                    "type": "address"
                },
                {
                    "indexed": false,
                    "internalType": "uint256",
                    "name": "timestamp",
                    "type": "uint256"
                },
                {
                    "indexed": false,
                    "internalType": "string",
                    "name": "wish",
                    "type": "string"
                }
            ],
            "name": "NewAvo",
            "type": "event"
        },
        {
            "inputs": [],
            "name": "getAllAvos",
            "outputs": [
                {
                    "components": [
                        {
                            "internalType": "address",
                            "name": "grower",
                            "type": "address"
                        },
                        {
                            "internalType": "string",
                            "name": "wish",
                            "type": "string"
                        },
                        {
                            "internalType": "uint256",
                            "name": "timestamp",
                            "type": "uint256"
                        }
                    ],
                    "internalType": "struct AvocadoGrowerPortal.Avo[]",
                    "name": "",
                    "type": "tuple[]"
                }
            ],
            "stateMutability": "view",
            "type": "function"
        },
        {
            "inputs": [],
            "name": "getTotalAvos",
            "outputs": [
                {
                    "internalType": "uint256",
                    "name": "",
                    "type": "uint256"
                }
            ],
            "stateMutability": "view",
            "type": "function"
        },
        {
            "inputs": [
                {
                    "internalType": "string",
                    "name": "_wish",
                    "type": "string"
                }
            ],
            "name": "grow",
            "outputs": [],
            "stateMutability": "nonpayable",
            "type": "function"
        }
    ],
    "bytecode": "0x60806040526200003360405180606001604052806039815260200162001090603991396200003960201b620004ae1760201c565b620001cd565b620000d98160405160240162000050919062000146565b6040516020818303038152906040527f41304fac000000000000000000000000000000000000000000000000000000007bffffffffffffffffffffffffffffffffffffffffffffffffffffffff19166020820180517bffffffffffffffffffffffffffffffffffffffffffffffffffffffff8381831617835250505050620000dc60201b60201c565b50565b60008151905060006a636f6e736f6c652e6c6f679050602083016000808483855afa5050505050565b600062000112826200016a565b6200011e818562000175565b93506200013081856020860162000186565b6200013b81620001bc565b840191505092915050565b6000602082019050818103600083015262000162818462000105565b905092915050565b600081519050919050565b600082825260208201905092915050565b60005b83811015620001a657808201518184015260208101905062000189565b83811115620001b6576000848401525b50505050565b6000601f19601f8301169050919050565b610eb380620001dd6000396000f3fe608060405234801561001057600080fd5b50600436106100415760003560e01c806302379179146100465780634aa5dd2d14610064578063afec570d14610082575b600080fd5b61004e61009e565b60405161005b9190610af5565b60405180910390f35b61006c6100e9565b60405161007991906109fc565b60405180910390f35b61009c600480360381019061009791906107b6565b61023a565b005b60006100e16040518060400160405280601b81526020017f54656e656d6f732025642070616c74617320656e20746f74616c210000000000815250600054610547565b600054905090565b60606001805480602002602001604051908101604052809291908181526020016000905b8282101561023157838290600052602060002090600302016040518060600160405290816000820160009054906101000a900473ffffffffffffffffffffffffffffffffffffffff1673ffffffffffffffffffffffffffffffffffffffff1673ffffffffffffffffffffffffffffffffffffffff16815260200160018201805461019690610cdb565b80601f01602080910402602001604051908101604052809291908181526020018280546101c290610cdb565b801561020f5780601f106101e45761010080835404028352916020019161020f565b820191906000526020600020905b8154815290600101906020018083116101f257829003601f168201915b505050505081526020016002820154815250508152602001906001019061010d565b50505050905090565b600160008082825461024c9190610c07565b925050819055506102936040518060400160405280601b81526020017f2573206765726d696e6120756e61206e756576612070616c746121000000000081525033836105e3565b600160405180606001604052803373ffffffffffffffffffffffffffffffffffffffff16815260200183815260200142815250908060018154018082558091505060019003906000526020600020906003020160009091909190915060008201518160000160006101000a81548173ffffffffffffffffffffffffffffffffffffffff021916908373ffffffffffffffffffffffffffffffffffffffff16021790555060208201518160010190805190602001906103529291906106ab565b506040820151816002015550503373ffffffffffffffffffffffffffffffffffffffff167f27b724a8b30d8f50fd0a3a4e659eedf9cb576ed14cbffcd13031b3340a434c9242836040516103a7929190610b10565b60405180910390a260006509184e72a0009050478111156103fd576040517f08c379a00000000000000000000000000000000000000000000000000000000081526004016103f490610ab5565b60405180910390fd5b60003373ffffffffffffffffffffffffffffffffffffffff1682604051610423906109e7565b60006040518083038185875af1925050503d8060008114610460576040519150601f19603f3d011682016040523d82523d6000602084013e610465565b606091505b50509050806104a9576040517f08c379a00000000000000000000000000000000000000000000000000000000081526004016104a090610ad5565b60405180910390fd5b505050565b610544816040516024016104c29190610a1e565b6040516020818303038152906040527f41304fac000000000000000000000000000000000000000000000000000000007bffffffffffffffffffffffffffffffffffffffffffffffffffffffff19166020820180517bffffffffffffffffffffffffffffffffffffffffffffffffffffffff8381831617835250505050610682565b50565b6105df828260405160240161055d929190610a85565b6040516020818303038152906040527f9710a9d0000000000000000000000000000000000000000000000000000000007bffffffffffffffffffffffffffffffffffffffffffffffffffffffff19166020820180517bffffffffffffffffffffffffffffffffffffffffffffffffffffffff8381831617835250505050610682565b5050565b61067d8383836040516024016105fb93929190610a40565b6040516020818303038152906040527fe0e9ad4f000000000000000000000000000000000000000000000000000000007bffffffffffffffffffffffffffffffffffffffffffffffffffffffff19166020820180517bffffffffffffffffffffffffffffffffffffffffffffffffffffffff8381831617835250505050610682565b505050565b60008151905060006a636f6e736f6c652e6c6f679050602083016000808483855afa5050505050565b8280546106b790610cdb565b90600052602060002090601f0160209004810192826106d95760008555610720565b82601f106106f257805160ff1916838001178555610720565b82800160010185558215610720579182015b8281111561071f578251825591602001919060010190610704565b5b50905061072d9190610731565b5090565b5b8082111561074a576000816000905550600101610732565b5090565b600061076161075c84610b65565b610b40565b90508281526020810184848401111561077957600080fd5b610784848285610c99565b509392505050565b600082601f83011261079d57600080fd5b81356107ad84826020860161074e565b91505092915050565b6000602082840312156107c857600080fd5b600082013567ffffffffffffffff8111156107e257600080fd5b6107ee8482850161078c565b91505092915050565b60006108038383610979565b905092915050565b61081481610c5d565b82525050565b61082381610c5d565b82525050565b600061083482610ba6565b61083e8185610bc9565b93508360208202850161085085610b96565b8060005b8581101561088c578484038952815161086d85826107f7565b945061087883610bbc565b925060208a01995050600181019050610854565b50829750879550505050505092915050565b60006108a982610bb1565b6108b38185610be5565b93506108c3818560208601610ca8565b6108cc81610dcb565b840191505092915050565b60006108e282610bb1565b6108ec8185610bf6565b93506108fc818560208601610ca8565b61090581610dcb565b840191505092915050565b600061091d603483610bf6565b915061092882610ddc565b604082019050919050565b6000610940602783610bf6565b915061094b82610e2b565b604082019050919050565b6000610963600083610bda565b915061096e82610e7a565b600082019050919050565b6000606083016000830151610991600086018261080b565b50602083015184820360208601526109a9828261089e565b91505060408301516109be60408601826109c9565b508091505092915050565b6109d281610c8f565b82525050565b6109e181610c8f565b82525050565b60006109f282610956565b9150819050919050565b60006020820190508181036000830152610a168184610829565b905092915050565b60006020820190508181036000830152610a3881846108d7565b905092915050565b60006060820190508181036000830152610a5a81866108d7565b9050610a69602083018561081a565b8181036040830152610a7b81846108d7565b9050949350505050565b60006040820190508181036000830152610a9f81856108d7565b9050610aae60208301846109d8565b9392505050565b60006020820190508181036000830152610ace81610910565b9050919050565b60006020820190508181036000830152610aee81610933565b9050919050565b6000602082019050610b0a60008301846109d8565b92915050565b6000604082019050610b2560008301856109d8565b8181036020830152610b3781846108d7565b90509392505050565b6000610b4a610b5b565b9050610b568282610d0d565b919050565b6000604051905090565b600067ffffffffffffffff821115610b8057610b7f610d9c565b5b610b8982610dcb565b9050602081019050919050565b6000819050602082019050919050565b600081519050919050565b600081519050919050565b6000602082019050919050565b600082825260208201905092915050565b600081905092915050565b600082825260208201905092915050565b600082825260208201905092915050565b6000610c1282610c8f565b9150610c1d83610c8f565b9250827fffffffffffffffffffffffffffffffffffffffffffffffffffffffffffffffff03821115610c5257610c51610d3e565b5b828201905092915050565b6000610c6882610c6f565b9050919050565b600073ffffffffffffffffffffffffffffffffffffffff82169050919050565b6000819050919050565b82818337600083830152505050565b60005b83811015610cc6578082015181840152602081019050610cab565b83811115610cd5576000848401525b50505050565b60006002820490506001821680610cf357607f821691505b60208210811415610d0757610d06610d6d565b5b50919050565b610d1682610dcb565b810181811067ffffffffffffffff82111715610d3557610d34610d9c565b5b80604052505050565b7f4e487b7100000000000000000000000000000000000000000000000000000000600052601160045260246000fd5b7f4e487b7100000000000000000000000000000000000000000000000000000000600052602260045260246000fd5b7f4e487b7100000000000000000000000000000000000000000000000000000000600052604160045260246000fd5b6000601f19601f8301169050919050565b7f547279696e6720746f207769746864726177206d6f7265206d6f6e657920746860008201527f616e2074686520636f6e7472616374206861732e000000000000000000000000602082015250565b7f4661696c656420746f207769746864726177206d6f6e65792066726f6d20636f60008201527f6e74726163742e00000000000000000000000000000000000000000000000000602082015250565b5056fea2646970667358221220ef07f02676980d73c101ec04fd1f02ef89a40b4c170e7b90c45e3143684e0f2e64736f6c63430008040033486f6c612120496e6963696173746520756e20636f6e747261746f206e7565766f2070617261206372656365722070616c7469746173203a44",
    "linkReferences": {},
    "deployedLinkReferences": {}
}